:0200000047288F
:1000060083160313911483128C190A2806288C115F
:020016000800E0
:1000180083160313111483128C1913280F288C11BB
:020028000800CE
:10002A00831203132A0893008C191C2819288C118F
:02003A000800BC
:10003C0083160313911583128C19252821288C11F2
:10004C002A182B28831691122D2883169116111617
:10005C0083128C1932282E288C111308F0000800FA
:10006C00831203130C1A3B2836282A08990008001F
:10007C0083160313111583128C19452841288C11F2
:02008C0008006A
:10008E0083120313A401A501A601A701A801A901CA
:10009E008316031788018901FF3003138500FF3093
:1000AE008600FF308700FF30890003178715031382
:1000BE009A012130990090308312980024308316D3
:1000CE009800940128308312940083169101093010
:1000DE009300831290010530FB000F30FC00F130CD
:1000EE00FD00FD0B7828FC0B7828FB0B78281014EC
:1000FE000C20D030AA0015208316111F8E288312D3
:10010E000C1C8D280C10D030AA00152083288312C9
:10011E003B30AA0015200320D130AA001520AA01D9
:10012E001E207008A500A401AA011E207008A407B5
:10013E000318A50A2508AA0036202408AA0036208E
:10014E00AA011E207008A700A601AA011E20700891
:10015E00A6070318A70A2708AA0036202608AA0011
:10016E003620AA011E207008A900A8010130AA009D
:10017E001E207008A8070318A90A2908AA0036200D
:10018E002808AA0036203E202308AA00362022087E
:10019E00AA0036200D30AA0036200A30AA003620DA
:1001AE0010100F08F100F00170080E07A2000030C9
:1001BE000318013E7107A3008E018F0110147F28D2
:0201CE00E72820
:04400E00D22F0007A6
:00000001FF
